S00B00004D4B312E7372656350
S11300000C9434000C9453000C9451000C94510043
S11300100C9451000C9451000C9451000C94510018
S11300200C9451000C9451000C9451000C94510008
S11300300C9451000C9451000C9451000C945100F8
S11300400C9451000C9451000C9451000C945100E8
S11300500C9451000C9451000C9451000C945100D8
S11300600C9451000C94510011241FBECFEFD8E022
S1130070DEBFCDBF11E0A0E0B1E0EEEFF1E002C0E1
S113008005900D92A631B107D9F721E0A6E1B1E0C0
S113009001C01D92A831B207E1F70E9488000C94B8
S11300A0FD000C9400001F920F920FB60F921124C2
S11300B08F939F93EF93FF9380910001909101019F
S11300C0019729F4109201011092000118C01092B6
S11300D00101109200011092170110921601E09193
S11300E01601F0911701E45FFE4F808185B9E0911C
S11300F01601F0911701EE5FFE4F80818BB9FF91DD
S1130100EF919F918F910F900FBE0F901F901895B4
S11301108FEF84B98AB95A9AE89AE9E6F0E08081C7
S1130120826080837894109217011092160126E160
S113013031E0ACE0B1E08091000190910101892BA4
S1130140D1F780911601909117010A97DCF4E091A0
S11301501601F0911701EE5FFE4F80818BB98091FB
S1130160160190911701019690931701809316013F
S11301704FE986E891E0415080409040E1F700C0AB
S1130180000038C01092170110921601E091160178
S1130190F0911701EE5FFE4F80818BB980911601BB
S11301A090911701019690931701809316014FE9DE
S11301B086E891E0415080409040E1F700C00000A3
S11301C019C0819185B94FE986E891E0415080409A
S11301D09040E1F700C00000E217F30791F78C911B
S11301E085B9E0911601F0911701EE5FFE4F808111
S11101F08BB9A1CFECE0F1E0E4CFF894FFCF9F
S11301FE01007F0EB79FCEDDFD0FFFDF3F065B4F85
S109020E666D7D077F6FA1
S9030000FC
