S00D00004D4B315F322E73726563BD
S11300000C9434000C9453000C9451000C94510043
S11300100C9451000C9451000C9451000C94510018
S11300200C9451000C9451000C9451000C94510008
S11300300C9451000C9451000C9451000C945100F8
S11300400C9451000C9451000C9451000C945100E8
S11300500C9451000C9451000C9451000C945100D8
S11300600C9451000C94510011241FBECFEFD8E022
S1130070DEBFCDBF11E0A0E0B1E0EEEEF1E002C0E2
S113008005900D92A631B107D9F721E0A6E1B1E0C0
S113009001C01D92AA31B207E1F70E9499000C94A5
S11300A0F5000C9400001F920F920FB60F921124CA
S11300B08F939F93EF93FF9380910001909101019F
S11300C0019729F4109201011092000129C01092A5
S11300D0010110920001809118019091190101967B
S11300E09093190180931801809116019091170142
S11300F0019771F48091180190911901069741F4C8
S11301001092170110921601109219011092180101
S1130110E0911601F0911701EE5FFE4F80818BB9DB
S1130120FF91EF919F918F910F900FBE0F901F90B1
S113013018958FEF8AB984B95A9AE89AE9E6F0E0FB
S11301408081826080837894809100019091010184
S1130150892BD1F780911801909119010A9794F491
S1130160E0911801F0911901E45FFE4F808185B997
S11301702FE986E891E0215080409040E1F700C0EB
S11301800000E2CF1092190110921801809116011B
S11301909091170101969093170180931601E091B5
S11301A01801F0911901E45FFE4F808185B98091B7
S11301B01601909117019093190180931801E09111
S11301C01801F0911901EE5FFE4F80818BB91092F6
S11301D01901109218012FE986E891E0215080401E
S11101E09040E1F700C00000AFCFF894FFCFCD
S11301EE01007F0EB79FCEDDFD0FFFDF3F065B4F95
S10901FE666D7D077F6FB2
S9030000FC
