S00B00004D4B342E737265634D
S11300000C9434000C940E010C9451000C94510087
S11300100C9451000C9451000C9451000C94510018
S11300200C9451000C9451000C9451000C94510008
S11300300C9453000C9451000C9451000C945100F6
S11300400C9451000C9451000C944E010C945100EA
S11300500C9451000C945D000C9451000C945100CC
S11300600C9451000C94510011241FBECFEFD8E022
S1130070DEBFCDBF11E0A0E0B1E0EEE0F5E002C0EC
S113008005900D92AE31B107D9F721E0AEE1B1E0B0
S113009001C01D92A432B207E1F70E940B020C9436
S11300A085020C9400001F920F920FB60F92112438
S11300B00F900FBE0F901F9018951F920F920FB6BE
S11300C00F9211248F939F938091780090917900DF
S11300D090931F0180931E019F918F910F900FBEEB
S11300E00F901F9018958FEF84B915B81AB85A9AC3
S11300F00895109280008BE0809381001092850017
S113010010928400EFE6F0E08081846080838AE1CD
S113011096E0909389008093880090938B0080935D
S11301208A000895AC019C0136952795369527954C
S113013036952795A5ECB0E20E94760292958295B9
S11301408F7089279F708927E0E2F1E0838368EE4E
S113015073E0869F9001879F300D969F300D112488
S1130160421B530B9A013695279536952795ABE795
S1130170B4E10E94760296958795828364E6689F2F
S11301809001699F300D1124421B530B9A01ADEC71
S1130190BCEC0E94760296958795969587959695E0
S11301A0879581839C01220F331F880F991F880F25
S11301B0991F880F991F820F931F481B590B408367
S11301C0089581E080937C0085E080937B0088EA39
S11301D080937A00089588E98093C10086E0809333
S11301E0C2001092C5008CE08093C4000895E0EC36
S11301F0F0E0908195FFFDCF8093C6000895CF93E2
S1130200DF93EC018881882331F021960E94F70066
S113021089918111FBCFDF91CF9108951F920F92A5
S11302200FB60F9211242F933F934F935F936F93C5
S11302307F938F939F93AF93BF93CF93DF93EF936A
S1130240FF9380E091E00E94FF00C0E2D1E08B8147
S1130250805D0E94F7008A81805D0E94F700898199
S1130260805D0E94F7008881805D0E94F7008BE129
S113027091E00E94FF00FF91EF91DF91CF91BF9138
S1130280AF919F918F917F916F915F914F913F912A
S11302902F910F900FBE0F901F9018951F920F92E1
S11302A00FB60F9211242F933F934F935F936F9345
S11302B07F938F939F93AF93BF93EF93FF9380911B
S11302C0C600803221F489E091E00E94FF00FF9192
S11302D0EF91BF91AF919F918F917F916F915F91BA
S11302E04F913F912F910F900FBE0F901F90189533
S11302F02D982E9A84B1807F84B92F9A0000000033
S113030023B12F980000000000002F9A0000000085
S113031083B12F9894B19F6094B915B88F7090E110
S1130320299F90011124822B0895CF93DF93C82F26
S1130330D62F0E9478018823E4F325B130E2C39FCD
S1130340C0011124822B85B92F9A85B1807F85B98C
S113035085B19D2F92959F70892B85B92F980000A8
S1130360000000002F9A85B1807F85B985B1DF70C8
S1130370D82BD5B92F9815B8DF91CF9108958FE078
S113038097E20197F1F700C000002D9883E085B94A
S11303902F9A0000000000002F9815B8E1EEF4E059
S11303A03197F1F700C000002D9885B92F9A00000D
S11303B0000000002F9815B8F2E3FA95F1F72D9894
S11303C085B92F9A0000000000002F9815B881EE1F
S11303D094E00197F1F700C000000E94780188239F
S11303E0E4F32D9882E085B92F9A00000000000004
S11303F02F9815B80E9478018823E4F368E280E01E
S11304000E9495016CE080E00E94950166E080E026
S11304100E94950108950E9473000E94BF010E94EA
S11304207900E89AE9E6F0E08081826080830E94A6
S1130430E1000E94EB007894289886E191E00E9404
S1130440FF0068E481E00E94950165E681E00E9476
S113045095016CE681E00E9495016CE681E00E94C2
S113046095016FE681E00E94950160EC80E00E94B6
S1130470950166E581E00E94950161E681E00E94B4
S113048095016CE681E00E94950165E781E00E9498
S1130490950165E681E00E9495016DE381E00E948B
S11304A0950160E281E00E949501C0E2D1E0809173
S11304B01E0190911F010E94920067EC80E00E944F
S11304C095016B81605D81E00E9495016A81605DA8
S11304D081E00E9495016981605D81E00E9495013F
S11304E06881605D81E00E949501E1CFA29FB00127
S11304F0B39FC001A39F700D811D1124911DB29F54
S1110500700D811D1124911D0895F894FFCFF4
S113050E56616C7565203D2000526F6765722074CC
S111051E6861740D0A0048656C6C6F0D0A006C
S9030000FC
