:100000000C9434000C9408010C9451000C94510091
:100010000C9451000C9451000C9451000C9451001C
:100020000C9451000C9451000C9451000C94CB0092
:100030000C9451000C9451000C9451000C945100FC
:100040000C9451000C9451000C9451000C945100EC
:100050000C9451000C9451000C9451000C945100DC
:100060000C9451000C94510011241FBECFEFD8E026
:10007000DEBFCDBF11E0A0E0B1E0E4EEF2E002C0EF
:1000800005900D92AA30B107D9F721E0AAE0B1E0BE
:1000900001C01D92AF30B207E1F70E944E010C94EF
:1000A00070010C9400008BE284B952985A9A08951A
:1000B000109280008BE08093810010928500109256
:1000C000840088E09DE390938900809388000895E0
:1000D0001092850010928400EFE6F0E0808182604B
:1000E00080830895EFE6F0E080818D7F808308951E
:1000F000AC019C01ADECBCEC0E946101969587952A
:100100009695879596958795EAE0F1E081839C0125
:10011000220F331F880F991F880F991F880F991F6F
:10012000820F931F481B590B4083089520E030E055
:10013000682F70E02D9AAB01022E02C0440F551FAC
:100140000A94E2F747FF02C02B9A01C02B982D9822
:100150002F5F3F4F2830310569F78EBD0DB407FE84
:10016000FDCF0895CF93DF930E9478002998CAE0CD
:10017000D1E0E881F0E0E050FF4F80810E949600DE
:10018000E981F0E0E050FF4F80810E949600299ABB
:10019000DF91CF9108951F920F920FB60F92112405
:1001A0002F933F934F935F936F937F938F939F937F
:1001B000AF93BF93EF93FF9380910D0190910E0148
:1001C0000E94B20080910D0190910E01833691053D
:1001D00050F480910D0190910E01019690930E01C3
:1001E00080930D0104C010920E0110920D01FF9139
:1001F000EF91BF91AF919F918F917F916F915F919F
:100200004F913F912F910F900FBE0F901F90189517
:100210001F920F920FB60F9211242F933F934F937B
:100220005F936F937F938F939F93AF93BF93EF935E
:10023000FF9380910C01811106C081E080930C0135
:100240000E9468000EC00E94720080910D01909182
:100250000E010E94B20010920C0110920E01109239
:100260000D01FF91EF91BF91AF919F918F917F9180
:100270006F915F914F913F912F910F900FBE0F9013
:100280001F90189584B1886284B98DB581608DBD49
:1002900080E58CBD85B1877D85B908950E945300A6
:1002A0000E9442010E945800E89AE9E6F0E080814D
:1002B000826080837894289880E090E00E94B20069
:1002C000FFCFA29FB001B39FC001A39F700D811DFE
:1002D0001124911DB29F700D811D1124911D08954F
:0402E000F894FFCFC0
:0A02E4003F065B4F666D7D077F6FDC
:00000001FF
